:020000040000FA
:100000000C9462000C949C070C9475070C948A0065
:100010000C948A000C948A000C948A000C948A0038
:100020000C948A000C948A000C948A000C948A0028
:100030000C948A000C94C3070C948A000C948A00D8
:100040000C942B070C948A000C94F9060C94D3069C
:100050000C948A000C948A000C948A000C948A00F8
:100060000C948A000C948A000000000023002600F3
:10007000290000000000240027002A0000000000E2
:10008000250028002B0004040404040404040202D4
:100090000202020203030303030301020408102007
:1000A0004080010204081020010204081020000012
:1000B0000008000201000003040700000000000027
:1000C0000000AD0911241FBECFEFD8E0DEBFCDBFC9
:1000D00022E0A4E7B1E001C01D92AC32B207E1F723
:1000E00011E0A0E0B1E0E8E6FDE102C005900D926C
:1000F000A437B107D9F710E0C2E6D0E004C02197D9
:10010000FE010E94AB0CC136D107C9F70E942F082F
:100110000C94B20E0C94000080E480937C008091DB
:100120007A00806480937A0080917A0086FDFCCF0B
:10013000809178009091790008950895AF92BF92D0
:10014000CF92DF92EF92FF920F931F93CF93DF93A3
:100150006C017B018B01040F151FEB015E01AE18D2
:10016000BF08C017D10759F06991D601ED91FC91F4
:100170000190F081E02DC6010995892B79F7C50121
:10018000DF91CF911F910F91FF90EF90DF90CF9073
:10019000BF90AF900895FC01538D448D252F30E022
:1001A000842F90E0821B930B541710F0CF96089584
:1001B00001970895FC01918D828D981761F0A28DB1
:1001C000AE0FBF2FB11D5D968C91928D9F5F9F7377
:1001D000928F90E008958FEF9FEF0895FC01918D2D
:1001E000828D981731F0828DE80FF11D858D90E09A
:1001F00008958FEF9FEF0895FC01918D228D892F37
:1002000090E0805C9F4F821B91098F73992708951E
:100210008BE891E00E94FC0021E0892B09F420E0AA
:10022000822F089580E090E0892B29F00E94080138
:1002300081110C9400000895FC01A48DA80FB92F22
:10024000B11DA35ABF4F2C91848D90E001968F73FE
:100250009927848FA689B7892C93A089B1898C911D
:10026000837080648C93938D848D981306C002886C
:10027000F389E02D80818F7D80830895EF92FF9236
:100280000F931F93CF93DF93EC0181E0888F9B8DB9
:100290008C8D98131AC0E889F989808185FF15C073
:1002A0009FB7F894EE89FF896083E889F989808196
:1002B0008370806480839FBF81E090E0DF91CF9165
:1002C0001F910F91FF90EF900895F62E0B8D10E087
:1002D0000F5F1F4F0F731127E02E8C8D8E110CC0F6
:1002E0000FB607FCFACFE889F989808185FFF5CF41
:1002F000CE010E941C01F1CFEB8DEC0FFD2FF11D03
:10030000E35AFF4FF0829FB7F8940B8FEA89FB897D
:1003100080818062CFCFCF93DF93EC01888D8823DB
:10032000B9F0AA89BB89E889F9898C9185FD03C058
:10033000808186FD0DC00FB607FCF7CF8C9185FF3D
:10034000F2CF808185FFEDCFCE010E941C01E9CF65
:10035000DF91CF91089590E0FC01E255FF4F249189
:10036000FC01E656FF4F3491FC01EA57FF4FE49140
:10037000EE23C9F0222339F0233001F1A8F4213013
:1003800019F1223029F1F0E0EE0FFF1FE458FF4F82
:10039000A591B4918FB7F894EC91611126C0309576
:1003A0003E233C938FBF08952730A9F02830C9F031
:1003B000243049F7809180008F7D03C080918000B8
:1003C0008F7780938000DFCF84B58F7784BDDBCFBC
:1003D00084B58F7DFBCF8091B0008F778093B00084
:1003E000D2CF8091B0008F7DF9CF3E2BDACFDF9254
:1003F000EF92FF920F931F93CF93DF93D62E97E246
:10040000E92E91E0F92ED0E0C0E0082F10E0B8010D
:100410000C2E02C0759567950A94E2F76095709569
:1004200061707727F70181917F010E94AB012196CE
:10043000C730D10561F761E06D2589E0DF91CF918B
:100440001F910F91FF90EF90DF900C94AB01CF9331
:10045000DF9390E0FC01E656FF4F24918A579F4FAF
:10046000FC0184918823C9F090E0880F991FFC015A
:10047000EE58FF4FA591B491FC01E458FF4FC59190
:10048000D49161110DC09FB7F8948C91209582236F
:100490008C938881282328839FBFDF91CF91089573
:1004A000623051F49FB7F8943C91822F809583235A
:1004B0008C93E8812E2BEFCF8FB7F894EC912E2BF5
:1004C0002C938FBFEACF3FB7F89480917D01909134
:1004D0007E01A0917F01B091800126B5A89B05C047
:1004E0002F3F19F00196A11DB11D3FBFBA2FA92FB3
:1004F000982F8827BC01CD01620F711D811D911DB0
:1005000042E0660F771F881F991F4A95D1F708951B
:100510000895FC0101900020E9F73197AF01481BD5
:10052000590BBC018BE891E00C949E008F929F9236
:10053000AF92BF920F931F93CF93DF93CDB7DEB7E8
:10054000A1970FB6F894DEBF0FBECDBF19A24230FF
:1005500008F44AE08E010F5D1F4F842E912CB12CC0
:10056000A12CA50194010E94890CE62FB901CA01B2
:10057000EA30F4F4E05DD801EE938D01232B242BB7
:10058000252B79F790E080E0109719F0CD010E94BB
:100590008902A1960FB6F894DEBF0FBECDBFDF91E2
:1005A000CF911F910F91BF90AF909F908F90089522
:1005B000E95CE1CF4F925F926F927F928F929F9210
:1005C000AF92BF92CF92DF92EF92FF920F931F9361
:1005D000CF936B017C01742EAC019B010E94840CB3
:1005E000882399F08FE291E0CF911F910F91FF90B6
:1005F000EF90DF90CF90BF90AF909F908F907F90C3
:100600006F905F904F900C94890246015701E894D7
:10061000B7F82FEF3FEF4FE75FE7C501B4010E9446
:10062000840C81110DC02FEF3FEF4FE75FE7C5014D
:10063000B4010E940F0A18161CF483E391E0D4CF92
:100640002FEF3FEF4FE75FE4C701B6010E947F0C39
:1006500018161CF487E391E0C7CF2FEF3FEF4FE769
:100660005FECC701B6010E940F0A87FDF3CF20E0BF
:1006700030E0A901C701B6010E940F0A10E000E0B6
:1006800087FF0AC06DE28BE891E00E943E018C0179
:10069000F7FAF094F7F8F094C0E060E070E080E0E2
:1006A0009FE37C1641F020E030E040E251E40E94FC
:1006B000D70BCF5FF6CFA70196010E946B0B2B01E2
:1006C0003C010E94500C4B015C014AE00E949602E2
:1006D0007C01E00EF11ECC23C1F1C501B4010E94E2
:1006E000140A9B01AC01C301B2010E946A0B4B01C9
:1006F0005C016EE28BE891E00E943E01E80EF91E7B
:10070000C15018F120E030E040E251E4C501B401ED
:100710000E94750A2B013C010E94500C4B01B12C28
:10072000A12C4AE0C501B4010E949602E80EF91E10
:10073000C501B4010E94140A9B01AC01C301B201BE
:100740000E946A0B4B015C01DBCFC701CF911F9167
:100750000F91FF90EF90DF90CF90BF90AF909F9060
:100760008F907F906F905F904F900895CF93DF931D
:10077000EC0188819981009711F00E944D0D19823A
:1007800018821D821C821B821A82DF91CF910895EC
:10079000FC0180819181009711F00C944D0D08951A
:1007A0000F931F93CF93DF938C01EB01FC018081AA
:1007B00091810097E1F06881798161157105A9F057
:1007C000428153812C813D814217530770F00E9472
:1007D0009C0E8C819D81F801958384831D821C82EF
:1007E000DF91CF911F910F9108950E944D0D888147
:1007F0009981F801918380838A819B81938382838D
:100800008C819D8195838483198218821B821A8230
:10081000E5CF0F931F93CF93DF93EC0188819981EC
:10082000009759F02A813B812617370730F081E085
:10083000DF91CF911F910F9108958B016F5F7F4FD3
:100840000E94D60D009759F0998388831B830A83F1
:100850002C813D81232B59F7FC011082E8CF80E0E9
:10086000E7CFEF92FF920F931F93CF93DF93EC01AB
:100870007B018A01BA010E94090481110BC0CE01DB
:100880000E94B603CE01DF91CF911F910F91FF908F
:10089000EF9008951D830C83B701888199810E9490
:1008A0009C0EF0CFEF92FF920F931F93CF93DF93A5
:1008B000CDB7DEB762970FB6F894DEBF0FBECDBFDF
:1008C0008C01CB01F80111821082138212821582F1
:1008D00014824AE09E012F5F3F4F7901B9010E94C7
:1008E000DA09F70101900020E9F73197AF014E19BD
:1008F0005F09B701C8010E94310462960FB6F894EF
:10090000DEBF0FBECDBFDF91CF911F910F91FF9042
:10091000EF9008958F929F92AF92BF92CF92DF9205
:10092000EF92FF920F931F93CF93DF93CDB7DEB774
:1009300068970FB6F894DEBF0FBECDBF6B017C0188
:100940001C8A1B8A1E8A1D8A188E1F8A50E040E06E
:100950006CE571E0CE0143960E9431048BE391E097
:100960000E94890280910401882309F4EDC082E489
:1009700091E00E94890220E030E048EC52E4C70197
:10098000B6010E940F0A87FFCDC01A8219821C820D
:100990001B821E821D8243E050E062E571E0CE01C1
:1009A00001960E943104BE016F5F7F4FCE014396D6
:1009B0000E94D003CE0101960E94C80320E030E0DF
:1009C000A901C701B6010E947F0C18160CF069C07E
:1009D000C701B6010E94490CCE010D960E94520437
:1009E0001A8219821C821B821E821D8280E38F83E1
:1009F00018868E01095F1F4FF80101900020E9F76A
:100A00003197AF01401B510BB801CE0101960E94F6
:100A1000310418861F821A8619861C861B866981F6
:100A20007A816115710529F04D815E81C8010E94AE
:100A300031048D849E848114910409F46AC0A988CC
:100A4000BA88A114B104B1F08B859C85A80EB91E9B
:100A5000B501C8010E940904882309F45AC02F81F6
:100A600038858B859C85B401820F931F0E949C0E54
:100A7000BC86AB866F8178856115710509F44DC020
:100A80004B855C85CE0143960E943104C8010E94CB
:100A9000C803CE0101960E94C803CE010D960E94A4
:100AA000C80320E030E0A901C701B6010E940F0A87
:100AB00087FF03C0C12CD12C760142E0C701B601EB
:100AC0000E94DA0286E591E00E9489028AE591E0BF
:100AD0000E9489020F89188D0115110509F066C061
:100AE00010928301CE0143960E94C80368960FB608
:100AF000F894DEBF0FBECDBFDF91CF911F910F9154
:100B0000FF90EF90DF90CF90BF90AF909F908F902D
:100B10000895C8010E94B603ADCFCE0143960E944E
:100B2000B603B4CFC701B6010E94490CCE010196AD
:100B30000E945204BE016F5F7F4FCE0143960E9418
:100B4000D003CE010196ABCF8DE591E00E948902E2
:100B500020E030E048EC52E4C701B6010E940F0AE1
:100B600087FF21C020E030E040E251E4C701B60138
:100B70000E94750A0E94490CCE0101960E945204FF
:100B8000BE016F5F7F4FCE0143960E94D003CE011E
:100B900001960E94C80342E0C701B6010E94DA0232
:100BA00080E791E091CFC701B601E4CF0530110590
:100BB00010F005E010E06B897C89A80183E891E0E2
:100BC0000E94A30EF801ED57FE4F10828BCF0F93BA
:100BD0001F9361E08FE00E94270260E08FE00E9497
:100BE000AB0183E090E00197F1F761E08FE00E94B4
:100BF000AB0183E290E00197F1F760E08FE00E94A3
:100C0000AB0160E080E10E942702EAEAF0E0649133
:100C1000E6E9F0E0E491F0E0EE0FFF1FE859FF4F46
:100C20008591949100E412E42FE030E0462F0E9479
:100C3000EA07611571058105910529F06F5F7F4F06
:100C40008F4F9F4F9F700E94140A26E933E44BE0B8
:100C50005DE30E94750A20E030E040E05FE30E941F
:100C6000750A0E94490CCB011F910F910895CF92F4
:100C7000DF92EF92FF928FB7F894C0907901D090F5
:100C80007A01E0907B01F0907C018FBF809174012C
:100C900090917501A0917601B0917701A70196011D
:100CA000281B390B4A0B5B0BDA01C901893C910502
:100CB000A105B105C0F08091040191E089278093DE
:100CC000040110928A011092890180910401882305
:100CD000B9F00E94E705BC01990F880B990B0E949F
:100CE000160A0E948A04C0927401D0927501E092A3
:100CF0007601F0927701FF90EF90DF90CF9008950A
:100D00000E948C00BC01990F880B990B0E94160A57
:100D100020E030E040EA5BE30E94750A20E030E02A
:100D200048EC52E40E94750ADCCF809189019091D1
:100D30008A01019690938A018093890180918901AB
:100D400090918A01069729F410928A0110928901E4
:100D500008958091890190918A01059719F58091F4
:100D60000401882351F00E94E705BC01990F880B0C
:100D7000990B0E94160A0C948A040E948C00BC01F4
:100D8000990F880B990B0E94160A20E030E040EA88
:100D90005BE30E94750A20E030E048EC52E40E94D8
:100DA000750AE9CF08951F920F920FB60F92112482
:100DB0002F933F934F935F936F937F938F939F9363
:100DC000AF93BF93EF93FF938BE891E00E941C01D8
:100DD000FF91EF91BF91AF919F918F917F916F9113
:100DE0005F914F913F912F910F900FBE0F901F90E9
:100DF00018951F920F920FB60F9211242F938F9375
:100E00009F93EF93FF93E0919B01F0919C01808170
:100E1000E091A101F091A20182FD1BC0908180911F
:100E2000A4018F5F8F732091A501821741F0E0919B
:100E3000A401F0E0E557FE4F958F8093A401FF9148
:100E4000EF919F918F912F910F900FBE0F901F9058
:100E500018958081F4CF1F920F920FB60F92112434
:100E60002F933F938F939F93AF93BF93809179017B
:100E700090917A01A0917B01B0917C013091780131
:100E800023E0230F2D3758F50196A11DB11D2093A6
:100E900078018093790190937A01A0937B01B093BC
:100EA0007C0180917D0190917E01A0917F01B091A4
:100EB00080010196A11DB11D80937D0190937E015B
:100EC000A0937F01B0938001BF91AF919F918F91CB
:100ED0003F912F910F900FBE0F901F90189526E80D
:100EE000230F0296A11DB11DD2CF1F920F920FB6F4
:100EF0000F9211242F933F934F935F936F937F93A0
:100F00008F939F93AF93BF93EF93FF93E091020171
:100F1000F09103010995FF91EF91BF91AF919F91DE
:100F20008F917F916F915F914F913F912F910F9092
:100F30000FBE0F901F9018951F920F920FB60F9231
:100F400011242F933F934F935F936F937F938F93CE
:100F50009F93AF93BF93EF93FF93E0910001F091C4
:100F600001010995FF91EF91BF91AF919F918F91F1
:100F70007F916F915F914F913F912F910F900FBE95
:100F80000F901F9018951F920F920FB60F92112479
:100F90002F933F934F935F936F937F938F939F9381
:100FA000AF93BF93EF93FF93E0918101F0918201A2
:100FB0000995FF91EF91BF91AF919F918F917F9193
:100FC0006F915F914F913F912F910F900FBE0F90B6
:100FD0001F901895CF92DF92EF92FF920F931F937D
:100FE000E82FF92F05C0015011092109310961F1DC
:100FF000908196239417B9F305C001501109210976
:10100000310911F1908196239413F7CFC12CD12C83
:10101000E12CF12C0AC08FEFC81AD80AE80AF80AA6
:101020000C151D052E053F0579F080818623841758
:1010300091F36C2D7D2D8E2D9F2D1F910F91FF9083
:10104000EF90DF90CF90089560E070E080E090E056
:101050001F910F91FF90EF90DF90CF900895CF9365
:10106000DF9300D0CDB7DEB7789484B5826084BDBD
:1010700084B5816084BD85B5826085BD85B581609C
:1010800085BD80916E00816080936E00109281001A
:1010900080918100826080938100809181008160D5
:1010A0008093810080918000816080938000809196
:1010B000B10084608093B1008091B0008160809322
:1010C000B00080917A00846080937A0080917A00E9
:1010D000826080937A0080917A00816080937A00A8
:1010E00080917A00806880937A001092C100E0912C
:1010F0009B01F0919C0182E08083E0919701F09147
:1011000098011082E0919901F0919A018FEC80830F
:101110001092A301E0919F01F091A00186E08083ED
:10112000E0919D01F0919E01808180618083E0913A
:101130009D01F0919E01808188608083E0919D01F6
:10114000F0919E01808180688083E0919D01F09103
:101150009E0180818F7D808307E211E061E0F801CC
:1011600081918F010E942702F1E00F321F07B1F732
:1011700061E085E00E94270261E084E00E9427028E
:1011800061E08FE00E94270261E080E10E94270277
:1011900080E180938100109280008DE89BE5909320
:1011A00087008093860084E18093810085E996E042
:1011B000909382018093810181E080936F0062E0CF
:1011C00082E00E94270287E396E0909301018093DA
:1011D0000001809169008C7F826080936900E89AA9
:1011E000109204010E94E705BC01990F880B990B2E
:1011F0000E94160A0E948A0460E089E00E94AB0106
:101200007E0123E0E20EF11C90E0C92E90E0D92E81
:101210008091890190918A0189838530910509F433
:1012200064C08F5F8A83CE0101961C0100E060E0FC
:1012300085E00E94AB0160E084E00E94AB01F10117
:1012400011911F0161E089E00E94AB0180910401CE
:10125000882309F45EC0123009F47CC008F049C04C
:10126000112309F46EC0E0918401113009F46BC0C0
:1012700011E01027612F85E00E94AB01602F84E010
:101280000E94AB010E9463024B015C018AE0482E80
:10129000512C612C712C0E946302681979098A090A
:1012A0009B09683E734081059105A8F3F1E04F1A50
:1012B00051086108710828EE820E23E0921EA11CDD
:1012C000B11C411451046104710429F72E143F0428
:1012D00071F4C114D10409F49BCF0E940801882342
:1012E00009F496CF0E94000093CF80E09BCF012F9E
:1012F0009ECF143059F028F060E080E0153019F0EE
:10130000B7CF60E089E30E94F701B2CF60E084E5E7
:10131000FACF1230F9F078F4112399F0113009F076
:10132000A7CFE09184010E2E000CFF0BE351FF4F7D
:1013300061E08081E8CF143021F3F0F660E083E6CD
:10134000E2CFE09183010E2E000CFF0BE351FF4F23
:1013500060E0EFCFE0918501F6CFEBE8F1E013829A
:10136000128288EE93E0A0E0B0E084839583A683A8
:10137000B7838FE091E09183808385EC90E095873F
:10138000848784EC90E09787868780EC90E0918B4F
:10139000808B81EC90E0938B828B82EC90E0958B3C
:1013A000848B86EC90E0978B868B118E128E138E39
:1013B000148E0895BB274A3031F4992322F4BDE2FC
:1013C000909581959F4F0C94E609BB27FB0155270B
:1013D000AA27880F991FAA1FA41710F0A41B839592
:1013E0005051B9F7A05DAA3308F0A95DA193009709
:1013F00079F7B111B1931192CB010C94FF09DC0183
:10140000FC01672F71917723E1F7329704C07C913B
:101410006D9370836291AE17BF07C8F308950E9461
:10142000510A08F481E00895E89409C097FB3EF45E
:1014300090958095709561957F4F8F4F9F4F992321
:10144000A9F0F92F96E9BB279395F695879577959F
:101450006795B795F111F8CFFAF4BB0F11F460FF5F
:101460001BC06F5F7F4F8F4F9F4F16C0882311F0B7
:1014700096E911C0772321F09EE8872F762F05C0CB
:10148000662371F096E8862F70E060E02AF09A9566
:10149000660F771F881FDAF7880F9695879597F95B
:1014A0000895990F0008550FAA0BE0E8FEEF1616F5
:1014B0001706E807F907C0F012161306E407F50748
:1014C00098F0621B730B840B950B39F40A2661F0BC
:1014D000232B242B252B21F408950A2609F4A1405F
:1014E000A6958FEF811D811D08950E94880A0C9496
:1014F000F90A0E94EB0A38F00E94F20A20F09523C4
:1015000011F00C94E20A0C94E80A11240C942D0BAF
:101510000E940A0B70F3959FC1F3950F50E0551F81
:10152000629FF001729FBB27F00DB11D639FAA2738
:10153000F00DB11DAA1F649F6627B00DA11D661F87
:10154000829F2227B00DA11D621F739FB00DA11DA8
:10155000621F839FA00D611D221F749F3327A00D62
:10156000611D231F849F600D211D822F762F6A2FFE
:1015700011249F5750409AF0F1F088234AF0EE0F63
:10158000FF1FBB1F661F771F881F91505040A9F790
:101590009E3F510580F00C94E20A0C942D0B5F3FA6
:1015A000E4F3983ED4F3869577956795B795F795CC
:1015B000E7959F5FC1F7FE2B880F911D9695879544
:1015C00097F9089597F99F6780E870E060E00895C3
:1015D0009FEF80EC089500240A941616170618064B
:1015E0000906089500240A94121613061406050627
:1015F0000895092E0394000C11F4882352F0BB0FB8
:1016000040F4BF2B11F460FF04C06F5F7F4F8F4F1A
:101610009F4F089557FD9058440F551F59F05F3F55
:1016200071F04795880F97FB991F61F09F3F79F004
:1016300087950895121613061406551FF2CF469586
:10164000F1DF08C0161617061806991FF1CF869508
:101650007105610508940895E894BB2766277727EC
:10166000CB0197F908952F923F924F925F926F921C
:101670007F928F929F92AF92BF92CF92DF92EF9222
:10168000FF920F931F93CF93DF93CDB7DEB7CA1BA3
:10169000DB0B0FB6F894DEBF0FBECDBF09942A88CE
:1016A000398848885F846E847D848C849B84AA8476
:1016B000B984C884DF80EE80FD800C811B81AA8103
:1016C000B981CE0FD11D0FB6F894DEBF0FBECDBFCE
:1016D000ED0108955058BB27AA270E94820B0C9455
:1016E000F90A0E94EB0A38F00E94F20A20F039F45D
:1016F0009F3F19F426F40C94E80A0EF4E095E7FBFA
:101700000C94E20AE92F0E940A0B58F3BA176207F9
:1017100073078407950720F079F4A6F50C942C0B39
:101720000EF4E0950B2EBA2FA02D0B01B9019001FC
:101730000C01CA01A0011124FF27591B99F0593F40
:1017400050F4503E68F11A16F040A22F232F342F88
:101750004427585FF3CF469537952795A795F040D6
:101760005395C9F77EF41F16BA0B620B730B840BEB
:10177000BAF09150A1F0FF0FBB1F661F771F881FA3
:10178000C2F70EC0BA0F621F731F841F48F48795FB
:1017900077956795B795F7959E3F08F0B0CF9395ED
:1017A000880F08F09927EE0F9795879508950E9466
:1017B000EB0B0C94F90A0E94F20A58F00E94EB0A13
:1017C00040F029F45F3F29F00C94E20A51110C9487
:1017D0002D0B0C94E80A0E940A0B68F39923B1F3CD
:1017E000552391F3951B550BBB27AA276217730747
:1017F000840738F09F5F5F4F220F331F441FAA1FDB
:10180000A9F335D00E2E3AF0E0E832D09150504096
:10181000E695001CCAF72BD0FE2F29D0660F771F44
:10182000881FBB1F261737074807AB07B0E809F02A
:10183000BB0B802DBF01FF2793585F4F3AF09E3FAF
:10184000510578F00C94E20A0C942D0B5F3FE4F301
:10185000983ED4F3869577956795B795F7959F5FF2
:10186000C9F7880F911D9695879597F90895E1E03E
:10187000660F771F881FBB1F621773078407BA079D
:1018800020F0621B730B840BBA0BEE1F88F7E095F8
:1018900008950E94500C6894B1110C942D0B08957A
:1018A0000E94120B88F09F5798F0B92F9927B751D3
:1018B000B0F0E1F0660F771F881F991F1AF0BA95F4
:1018C000C9F714C0B13091F00E942C0BB1E008951B
:1018D0000C942C0B672F782F8827B85F39F0B93F0D
:1018E000CCF3869577956795B395D9F73EF49095A7
:1018F0008095709561957F4F8F4F9F4F08950E94FF
:10190000510A08F48FEF08950E94510A880B990B31
:101910000895A1E21A2EAA1BBB1BFD010DC0AA1F30
:10192000BB1FEE1FFF1FA217B307E407F50720F048
:10193000A21BB30BE40BF50B661F771F881F991FC3
:101940001A9469F760957095809590959B01AC010C
:10195000BD01CF010895EE0FFF1F0590F491E02D1A
:1019600009940F931F93CF93DF938230910510F466
:1019700082E090E0E0912A02F0912B0230E020E03A
:10198000B0E0A0E0309799F42115310509F44AC080
:10199000281B390B24303105D8F58A819B816115CC
:1019A000710589F1FB0193838283FE0111C040819F
:1019B00051810281138148175907E0F048175907F0
:1019C00099F4109761F012960C93129713961C934A
:1019D0003296CF01DF91CF911F910F91089500931F
:1019E0002A0210932B02F4CF2115310551F0421732
:1019F000530738F0A901DB019A01BD01DF01F801AD
:101A0000C1CFEF01F9CF90932B0280932A02CDCF63
:101A1000FE01E20FF31F8193919322503109398324
:101A20002883D7CF2091280230912902232B41F41B
:101A30002091070130910801309329022093280258
:101A400020910501309106012115310541F42DB792
:101A50003EB74091090150910A01241B350BE091DA
:101A60002802F0912902E217F307A0F42E1B3F0B86
:101A70002817390778F0AC014E5F5F4F2417350700
:101A800048F04E0F5F1F5093290240932802819324
:101A900091939FCFF0E0E0E09CCFCF93DF9300974E
:101AA000E9F0FC01329713821282A0912A02B091D0
:101AB0002B02ED0130E020E01097A1F4208131816C
:101AC000820F931F2091280230912902281739078D
:101AD00009F061C0F0932902E0932802DF91CF91D1
:101AE0000895EA01CE17DF07E8F54A815B819E0180
:101AF00041155105B1F7E901FB83EA8349915991F9
:101B0000C40FD51FEC17FD0761F480819181029607
:101B1000840F951FE90199838883828193819B8338
:101B20008A83F0E0E0E012968D919C9113970097E4
:101B3000B9F52D913C911197CD010296820F931F1B
:101B400020912802309129022817390739F6309759
:101B500051F510922B0210922A02B0932902A09301
:101B60002802BCCFD383C28340815181840F951F4B
:101B7000C817D90761F44E5F5F4F88819981480F7C
:101B8000591F518340838A819B81938382832115CE
:101B9000310509F0B0CFF0932B02E0932A029ECFDB
:101BA000FD01DC01C0CF13821282D7CFB0E0A0E0EC
:101BB000ECEDFDE00C94350B8C01009751F4CB015A
:101BC0000E94B10C8C01C801CDB7DEB7E0E10C94E6
:101BD000510BFC01E60FF71F9C0122503109E2175F
:101BE000F30708F49DC0D901CD91DC911197C61778
:101BF000D70798F0C530D10530F3CE01049786178A
:101C0000970708F3C61BD70B2297C193D1936D9307
:101C10007C93CF010E944D0DD6CF5B01AC1ABD0A5B
:101C20004C018C0E9D1EA0912A02B0912B02512CCA
:101C3000412CF12CE12C109731F5809128029091E4
:101C400029028815990509F05CC04616570608F068
:101C500058C08091050190910601009741F48DB71D
:101C60009EB74091090150910A01841B950BE8171A
:101C7000F90708F055C0F0932902E0932802F90112
:101C800071836083A0CF8D919C91119712966C9077
:101C9000129713967C901397A815B90559F56C0106
:101CA00042E0C40ED11CCA14DB0420F1AC014A1975
:101CB0005B09DA011296159780F062827382518374
:101CC0004083D9016D937C93E114F10471F0D70145
:101CD0001396FC93EE93129776CF22968C0F9D1F4E
:101CE000F90191838083F301EFCFF0932B02E0930E
:101CF0002A0269CF4816590608F42C017D01D30148
:101D00009ACFCB010E94B10C7C01009749F0AE0143
:101D1000B8010E94930EC8010E944D0D870153CF58
:101D200010E000E050CFFB01DC0102C001900D92F9
:101D300041505040D8F70895FB01DC0101900D920D
:101D40000020E1F70895FB01DC014150504048F0CC
:101D500001900D920020C9F701C01D9241505040E2
:101D6000E0F70895F894FFCF880288020100002C64
:101D7000028000000000003E019E00CB008B01FCB1
:101D800000DA00EE003F065B4F666D7D077F6F0B4C
:101D90000A0807060C0D096E616E00696E66006F19
:101DA0007666004D6F64653A200064697374616EF5
:101DB0006365206D6F64652C200030303000206337
:101DC0006D000D0A0074656D7065726174757265E1
:0C1DD000206D6F64652C20002043000093
:107E0000112484B714BE81FFF0D085E080938100F7
:107E100082E08093C00088E18093C10086E0809377
:107E2000C20080E18093C4008EE0C9D0259A86E02C
:107E300020E33CEF91E0309385002093840096BBD3
:107E4000B09BFECF1D9AA8958150A9F7CC24DD24C4
:107E500088248394B5E0AB2EA1E19A2EF3E0BF2EE7
:107E6000A2D0813461F49FD0082FAFD0023811F036
:107E7000013811F484E001C083E08DD089C08234E0
:107E800011F484E103C0853419F485E0A6D080C0E4
:107E9000853579F488D0E82EFF2485D0082F10E0AE
:107EA000102F00270E291F29000F111F8ED06801E7
:107EB0006FC0863521F484E090D080E0DECF843638
:107EC00009F040C070D06FD0082F6DD080E0C81688
:107ED00080E7D80618F4F601B7BEE895C0E0D1E017
:107EE00062D089930C17E1F7F0E0CF16F0E7DF06D8
:107EF00018F0F601B7BEE89568D007B600FCFDCFD4
:107F0000A601A0E0B1E02C9130E011968C91119780
:107F100090E0982F8827822B932B1296FA010C0160
:107F200087BEE89511244E5F5F4FF1E0A038BF0790
:107F300051F7F601A7BEE89507B600FCFDCF97BE46
:107F4000E89526C08437B1F42ED02DD0F82E2BD052
:107F50003CD0F601EF2C8F010F5F1F4F84911BD097
:107F6000EA94F801C1F70894C11CD11CFA94CF0C13
:107F7000D11C0EC0853739F428D08EE10CD085E9AC
:107F80000AD08FE07ACF813511F488E018D01DD067
:107F900080E101D065CF982F8091C00085FFFCCF94
:107FA0009093C60008958091C00087FFFCCF809118
:107FB000C00084FD01C0A8958091C6000895E0E648
:107FC000F0E098E1908380830895EDDF803219F02E
:107FD00088E0F5DFFFCF84E1DECF1F93182FE3DFCA
:107FE0001150E9F7F2DF1F91089580E0E8DFEE27F6
:047FF000FF270994CA
:027FFE00040479
:00000001FF
